{
  "contractName": "BlockTrade",
  "abi": [
    {
      "constant": true,
      "inputs": [],
      "name": "propertyCount",
      "outputs": [
        {
          "name": "",
          "type": "uint256"
        }
      ],
      "payable": false,
      "stateMutability": "view",
      "type": "function",
      "signature": "0xc361a335"
    },
    {
      "constant": true,
      "inputs": [
        {
          "name": "",
          "type": "uint256"
        }
      ],
      "name": "properties",
      "outputs": [
        {
          "name": "propertyId",
          "type": "uint256"
        },
        {
          "name": "registrationNo",
          "type": "uint256"
        },
        {
          "name": "description",
          "type": "string"
        },
        {
          "name": "ownerCount",
          "type": "uint256"
        }
      ],
      "payable": false,
      "stateMutability": "view",
      "type": "function",
      "signature": "0xf7b10808"
    },
    {
      "inputs": [],
      "payable": false,
      "stateMutability": "nonpayable",
      "type": "constructor",
      "signature": "constructor"
    },
    {
      "constant": false,
      "inputs": [
        {
          "name": "_propertyId",
          "type": "uint256"
        },
        {
          "name": "_newOwnerName",
          "type": "string"
        },
        {
          "name": "_buyingPrice",
          "type": "uint256"
        }
      ],
      "name": "transferProperty",
      "outputs": [],
      "payable": false,
      "stateMutability": "nonpayable",
      "type": "function",
      "signature": "0xaf593f6a"
    },
    {
      "constant": false,
      "inputs": [
        {
          "name": "_registrationNo",
          "type": "uint256"
        },
        {
          "name": "_ownerName",
          "type": "string"
        },
        {
          "name": "_buyingPrice",
          "type": "uint256"
        },
        {
          "name": "_description",
          "type": "string"
        }
      ],
      "name": "addProperty",
      "outputs": [],
      "payable": false,
      "stateMutability": "nonpayable",
      "type": "function",
      "signature": "0x50f3f58a"
    },
    {
      "constant": true,
      "inputs": [
        {
          "name": "_propertyId",
          "type": "uint256"
        },
        {
          "name": "_ownerId",
          "type": "uint256"
        }
      ],
      "name": "getOwner",
      "outputs": [
        {
          "name": "",
          "type": "uint256"
        },
        {
          "name": "",
          "type": "string"
        },
        {
          "name": "",
          "type": "uint256"
        },
        {
          "name": "",
          "type": "uint256"
        }
      ],
      "payable": false,
      "stateMutability": "view",
      "type": "function",
      "signature": "0xd7f8a18d"
    }
  ],
  "bytecode": "0x6080604052600080553480156200001557600080fd5b50620000ca620196406040805190810160405280600b81526020017f5072616b6173682052616a00000000000000000000000000000000000000000081525062225510606060405190810160405280603381526020017f547970653a3342486b20686f75736520776974682067617264656e2e204c6f6381526020017f6174696f6e203a2044686172616d7075722e200000000000000000000000000081525062000440640100000000026401000000009004565b6200017e62019a286040805190810160405280600d81526020017f5368617264756c20417377616c000000000000000000000000000000000000008152506216e360606060405190810160405280602181526020017f547970653a3242484b20466c61742e204c6f636174656420617420526169707581526020017f720000000000000000000000000000000000000000000000000000000000000081525062000440640100000000026401000000009004565b6200023262019e106040805190810160405280600d81526020017f53616e64656570204368616e64000000000000000000000000000000000000008152506203bd08606060405190810160405280603081526020017f547970653a3342486b20686f757365207769746820666c61742e204c6f63617481526020017f696f6e203a2044686172616d7075722e0000000000000000000000000000000081525062000440640100000000026401000000009004565b620002e66201a1f86040805190810160405280600f81526020017f53616d61727468204368617568616e00000000000000000000000000000000008152506204e200606060405190810160405280603881526020017f547970653a50726f70657274792e44696d656e73696f6e3a2035302a3630206681526020017f742e204c6f636174696f6e203a2052697368696b6573682e000000000000000081525062000440640100000000026401000000009004565b6200033b60036040805190810160405280600681526020017f73616368696e0000000000000000000000000000000000000000000000000000815250621e84806200052c640100000000026401000000009004565b6200039060036040805190810160405280600781526020017f73616e646565700000000000000000000000000000000000000000000000000081525062200b206200052c640100000000026401000000009004565b620003e560036040805190810160405280600581526020017f766172756e000000000000000000000000000000000000000000000000000000815250622191c06200052c640100000000026401000000009004565b6200043a60036040805190810160405280600681526020017f617276696e640000000000000000000000000000000000000000000000000000815250622318606200052c640100000000026401000000009004565b62000658565b6000805460019081018083556040805160808101825282815260208082018a815282840188815260608401879052948752858252929095208151815591519382019390935590518051929391926200049f9260028501920190620005b3565b506060918201516003918201556000805481526001602081815260408084208151608081018352958101548087528684018b81528784018b9052429888018990529086526004820184529190942085518155905180519496959491936200050d9390850192910190620005b3565b5060408201516002820155606090910151600390910155505050505050565b600083815260016020818152604080842060038101805485019081905582516080810184528181528085018981528185018990524260608301819052928852600484018652939096208651815592518051929691959194620005959392850192910190620005b3565b50604082015160028201556060909101516003909101555050505050565b828054600181600116156101000203166002900490600052602060002090601f016020900481019282601f10620005f657805160ff191683800117855562000626565b8280016001018555821562000626579182015b828111156200062657825182559160200191906001019062000609565b506200063492915062000638565b5090565b6200065591905b808211156200063457600081556001016200063f565b90565b61080580620006686000396000f3fe60806040526004361061006c5763ffffffff7c010000000000000000000000000000000000000000000000000000000060003504166350f3f58a8114610071578063af593f6a146101bc578063c361a33514610278578063d7f8a18d1461029f578063f7b108081461035c575b600080fd5b34801561007d57600080fd5b506101ba6004803603608081101561009457600080fd5b813591908101906040810160208201356401000000008111156100b657600080fd5b8201836020820111156100c857600080fd5b803590602001918460018302840111640100000000831117156100ea57600080fd5b91908080601f0160208091040260200160405190810160405280939291908181526020018383808284376000920191909152509295843595909490935060408101925060200135905064010000000081111561014557600080fd5b82018360208201111561015757600080fd5b8035906020019184600183028401116401000000008311171561017957600080fd5b91908080601f0160208091040260200160405190810160405280939291908181526020018383808284376000920191909152509295506103d4945050505050565b005b3480156101c857600080fd5b506101ba600480360360608110156101df57600080fd5b8135919081019060408101602082013564010000000081111561020157600080fd5b82018360208201111561021357600080fd5b8035906020019184600183028401116401000000008311171561023557600080fd5b91908080601f01602080910402602001604051908101604052809392919081815260200183838082843760009201919091525092955050913592506104bc915050565b34801561028457600080fd5b5061028d610541565b60408051918252519081900360200190f35b3480156102ab57600080fd5b506102cf600480360360408110156102c257600080fd5b5080359060200135610547565b6040518085815260200180602001848152602001838152602001828103825285818151815260200191508051906020019080838360005b8381101561031e578181015183820152602001610306565b50505050905090810190601f16801561034b5780820380516001836020036101000a031916815260200191505b509550505050505060405180910390f35b34801561036857600080fd5b506103866004803603602081101561037f57600080fd5b503561064d565b6040518085815260200184815260200180602001838152602001828103825284818151815260200191508051906020019080838360008381101561031e578181015183820152602001610306565b6000805460019081018083556040805160808101825282815260208082018a815282840188815260608401879052948752858252929095208151815591519382019390935590518051929391926104319260028501920190610715565b506060918201516003918201556000805481526001602081815260408084208151608081018352958101548087528684018b81528784018b90524298880189905290865260048201845291909420855181559051805194969594919361049d9390850192910190610715565b5060408201516002820155606090910151600390910155505050505050565b6000838152600160208181526040808420600381018054850190819055825160808101845281815280850189815281850189905242606083018190529288526004840186529390962086518155925180519296919591946105239392850192910190610715565b50604082015160028201556060909101516003909101555050505050565b60005481565b60006060600080610556610793565b60008781526001602081815260408084208a855260040182529283902083516080810185528154815281840180548651600296821615610100026000190190911695909504601f8101859004850286018501909652858552909491938584019390929083018282801561060a5780601f106105df5761010080835404028352916020019161060a565b820191906000526020600020905b8154815290600101906020018083116105ed57829003601f168201915b5050509183525050600282015460208083019190915260039092015460409182015282519183015190830151606090930151919a90995091975095509350505050565b6001602052806000526040600020600091509050806000015490806001015490806002018054600181600116156101000203166002900480601f0160208091040260200160405190810160405280929190818152602001828054600181600116156101000203166002900480156107055780601f106106da57610100808354040283529160200191610705565b820191906000526020600020905b8154815290600101906020018083116106e857829003601f168201915b5050505050908060030154905084565b828054600181600116156101000203166002900490600052602060002090601f016020900481019282601f1061075657805160ff1916838001178555610783565b82800160010185558215610783579182015b82811115610783578251825591602001919060010190610768565b5061078f9291506107bc565b5090565b608060405190810160405280600081526020016060815260200160008152602001600081525090565b6107d691905b8082111561078f57600081556001016107c2565b9056fea165627a7a723058209063fb09322a9cbcf39c70b104170f3a518b5d217c8c635fd758c4cec6577d140029",
  "source": "pragma solidity^0.5.0;\r\n\r\ncontract BlockTrade {\r\n\tuint public propertyCount = 0;\r\n\r\n\tstruct Owner {\r\n\t\tuint ownerId;\r\n\t\tstring ownerName;\r\n\t\tuint buyingPrice;\r\n\t\tuint regDateTime;\r\n\t}\r\n\r\n\tstruct Property {\r\n\t\tuint propertyId;\r\n\t\tuint registrationNo;\r\n\t\tstring description;\r\n\t\t/* Owner[] owners; */\r\n\t\tuint ownerCount;\r\n\t\tmapping (uint => Owner) owners;\r\n\t} //Property pt;\r\n\r\n\tmapping (uint => Property) public properties;\r\n\r\n\tconstructor() public {\r\n\t\taddProperty(104000, \"Prakash Raj\", 2250000, \"Type:3BHk house with garden. Location : Dharampur. \");\r\n\t\taddProperty(105000, \"Shardul Aswal\", 1500000, \"Type:2BHK Flat. Located at Raipur\");\r\n\t\taddProperty(106000, \"Sandeep Chand\", 245000, \"Type:3BHk house with flat. Location : Dharampur.\");\r\n\t\taddProperty(107000, \"Samarth Chauhan\", 320000, \"Type:Property.Dimension: 50*60 ft. Location : Rishikesh.\");\r\n\t\ttransferProperty(3,\"sachin\",2000000);\r\n\t\ttransferProperty(3,\"sandeep\",2100000);\r\n\t\ttransferProperty(3,\"varun\",2200000);\r\n\t\ttransferProperty(3,\"arvind\",2300000);\r\n\r\n\t}\r\n\r\n\tfunction transferProperty(uint _propertyId, string memory _newOwnerName, uint _buyingPrice) public {\r\n\t\tProperty storage p = properties[_propertyId];\r\n\t\tp.ownerCount++;\r\n\t\tuint _dateTime = now;\r\n\t\tp.owners[p.ownerCount] = Owner(p.ownerCount, _newOwnerName, _buyingPrice, _dateTime);\r\n\t}\r\n\r\n\tfunction addProperty(uint _registrationNo, string memory _ownerName, uint _buyingPrice, string memory _description) public {\r\n\t\tpropertyCount++;\r\n\t\tproperties[propertyCount] = Property(propertyCount, _registrationNo, _description, 1);\r\n\t\tProperty storage p = properties[propertyCount];\r\n\t\tuint _dateTime = now;\r\n\t\tp.owners[p.ownerCount] = Owner(p.ownerCount, _ownerName, _buyingPrice, _dateTime);\r\n\t}\r\n\r\n\tfunction getOwner(uint _propertyId, uint _ownerId) public view returns (uint, string memory, uint, uint) {\r\n\t\tOwner memory o = properties[_propertyId].owners[_ownerId];\r\n\t\treturn (o.ownerId, o.ownerName, o.buyingPrice, o.regDateTime);\r\n\t}\r\n\r\n\r\n}\r\n",
  "sourcePath": "D:/blocktrade/contracts/BlockTrade.sol",
  "compiler": {
    "name": "solc",
    "version": "0.5.0+commit.1d4f565a.Emscripten.clang"
  },
  "schemaVersion": "3.0.3",
  "updatedAt": "2019-06-10T05:46:14.795Z",
  "devdoc": {
    "methods": {}
  },
  "userdoc": {
    "methods": {}
  }
}